:020000040800F2
:1000000030170020C1010008C90100088B02000858
:10001000CD010008CF010008D10100080000000058
:10002000000000000000000000000000D3010008F4
:10003000D50100080000000013020008011F00089D
:10004000DB010008DB010008DB010008DB01000820
:10005000DB010008DB010008DB010008DB01000810
:10006000DB010008DB010008DB010008DB01000800
:10007000DB010008DB010008DB010008DB010008F0
:10008000DB010008DB010008DB010008DB010008E0
:10009000DB010008DB010008DB010008DB010008D0
:1000A000DB010008DB010008DB010008DB010008C0
:1000B000DB010008DB010008DB010008DB010008B0
:1000C000DB010008DB010008DB010008DB010008A0
:1000D000DB010008DB010008DB010008DB01000890
:1000E000DB010008DB010008DB010008DB01000880
:1000F000DB010008DB010008DB010008DB01000870
:10010000DB010008DB010008DB010008DB0100085F
:10011000DB010008DB010008DB010008DB0100084F
:10012000DB010008DB010008DB010008DB0100083F
:10013000DB010008DB010008DB010008DB0100082F
:10014000DB010008DB010008DB010008DB0100081F
:10015000DB010008DB010008DB010008DB0100080F
:10016000DB010008DB010008DB010008DB010008FF
:10017000DB010008DB010008DB010008DB010008EF
:10018000DB010008DB010008DB010008DB010008DF
:10019000DB010008DB010008DB010008DB010008CF
:1001A000DB010008DB010008DB010008DFF80CD0F0
:1001B00000F0B4F8004800477F0300083017002023
:1001C0000648804706480047FEE7FEE7FEE7FEE7F1
:1001D000FEE7FEE7FEE7FEE7FEE7FEE7151F000885
:1001E000AD010008EFF3108072B6704780F31088FD
:1001F00070472B4A1368012B04D04FF001031360A2
:10020000284A1060284A116028484FF08051016048
:100210007047EFF3108272B62148016891B14FF038
:10022000000101601F48016829B1EFF3098121E94C
:10023000F00F006801601C4909680968B1E8F00F17
:1002400081F3098882F310884EF0040E7047164936
:10025000086014494FF00000086011494FF0010098
:10026000086013484FF47F01D0F8002041EA0201F2
:1002700001600E484FF0805101600E480068006830
:1002800080F3088861B662B67047EFF3098000B565
:1002900002F0FAFB5DF804EB4EF0040E704700002C
:1002A000D0000020C8000020CC00002004ED00E0B9
:1002B00020ED00E008ED00E02DE9F05F05460020AC
:1002C00092469B4688460646814640241BE02846C7
:1002D00041464746224600F042F853465A46C01A65
:1002E000914110D311461846224600F029F82D1AE4
:1002F00067EB01084F4622460120002100F020F85C
:1003000017EB00094E41201EA4F10104DFDC484632
:1003100031462A464346BDE8F09F0000064C074D93
:1003200006E0E06840F0010394E8070098471034C5
:10033000AC42F6D3FFF73EFF684E0008884E000837
:10034000202A04DB203A00FA02F100207047914095
:10035000C2F1200320FA03F3194390407047202A8A
:1003600004DB203A21FA02F00021704721FA02F35F
:10037000D040C2F12002914008431946704710B5A1
:10038000FFF730FF03F0C2FB002010BD10B50121C4
:10039000CC05204601F042FA2046BDE8104000217D
:1003A00001F03CBA01460020024A52680A4200D0DD
:1003B0000120704700B0024030B500242A4B196874
:1003C0002A4A114019601968026811431960596B73
:1003D00021F007015963596B426811435963416821
:1003E000002928D001292DD0022930D0032933D06B
:1003F000C1680A010169090244692403856821432F
:1004000015430D43996B0D439D638169D963196C45
:100410006FF30D011964196CC26911431964818C61
:1004200009045A6C02F040425A645A6C006A024352
:100430000A435A6430BDC1680A02018A0904047D76
:100440002406DBE7C1680A02018A0904D6E7C1680D
:100450004A010169C902D1E7C1684A0101698902FB
:100460004469E403CAE7000000B00240FCE0FCFF7E
:100470000248016841F001010160704700B002408C
:1004800070B586B00121084601F0BAF901211020AB
:1004900001F0E0F900248DF8164001208DF81700D6
:1004A00002258DF815508DF81450400204901C4E12
:1004B00004A9304600F0F0F88DF814506902049158
:1004C00004A9304600F0E8F807220A21304600F07F
:1004D00021F907220921304600F01CF94FF4E130E0
:1004E0000090ADF80440ADF80640ADF80840ADF816
:1004F0000C400C20ADF80A000A4C6946204601F079
:100500005FFD01F013F9012240F22551204601F070
:100510003CFD0121204601F025FD06B070BD000024
:10052000000002400010014000224FF0204310283C
:100530000AD0B0F5807F09D0B0F5805F09D0D3F83C
:100540005801814309D107E0586EFAE7D3F88400D7
:10055000F7E7D3F8A400F4E7012210467047000043
:10056000D0E9001211438268C068521E520142EA6B
:10057000402001430148016070470000500100A085
:1005800070B50468A100A1F1C041D1F84011CE0BB3
:10059000F603D0E901121143D0E903231A431143B2
:1005A0004269C36911438269056A11431943426A6A
:1005B0002943114331434FF02046002C3CD0D6F85C
:1005C00040416FF30E042B4322431343C6F84031DE
:1005D00002689200A2F1C042C2F84011016871B3F2
:1005E0008900A1F1C041D1F8481101F07043816A3E
:1005F0000A684C68521E641E42EA04148A68521E3D
:1006000044EA02240A8A521E44EA02421A43D6F8F5
:10061000483103F07043CC68898A641E2403491E64
:1006200044EA01511943C6F8481100688000A0F15E
:10063000C040C0F8482170BDC6F84011CEE7FFE7C2
:10064000D6F8481101F07041806A02684368521E72
:100650005B1E42EA03138268521E43EA0223C26809
:10066000521E43EA0233028A521E43EA0243828A3E
:10067000007E521E43EA0252401E42EA00600843D6
:10068000C6F8480170BD000002490A6842EA40000D
:1006900008607047540100A02DE9F04100220127B5
:1006A0004FF0030C07FA02F50B682B40AB422CD13C
:1006B000066853000CFA03F4A64306600E79D0F8DE
:1006C00000809E4046EA080606600E79012E01D0A1
:1006D000022E12D18668A64386604E79D0F8088033
:1006E0009E4046EA080686604668AE434660456816
:1006F0008E799640B6B235434560C568A543C5605E
:10070000CC799C40C3681C43C460521C102AC9D3D6
:10071000BDE8F08110B54B07DB0E9A40C90800EB2D
:100720008100016A0F249C40A1430162016A1143C8
:10073000016210BD01837047F0B58BB00446E50A35
:1007400004F01F07C4F34516FFF720FE4FF44030B6
:100750000190022002900496039705952004001250
:10076000000E06900C4C60680790002008904FF433
:10077000F07009904FF448700A9001A8FFF71CFE32
:10078000FFF776FE0220FFF70DFE0028FAD0208842
:1007900000F056FC0BB0F0BD34000020F0B5074669
:1007A00000240B4D4FF4487608E0202221463846BD
:1007B00000F010F8E8688088204484B2B44205D282
:1007C000E8688188081980B28842EED2F0BD000046
:1007D0003400002010B4203AD3B2054AD26814681D
:1007E000D2885A4304EB420210BC00F025B8000046
:1007F000340000202DE9F04180460D4600240D4EC6
:100800004FF4487708E021464046FFF7E3FFF068E1
:100810008088204484B26D1CBC4208D22A78002A09
:1008200005D0F0688188081980B28842EBD2BDE813
:10083000F0810000340000202DE9F04300254FF442
:10084000C8635843DFF87890D9F804C0D9F80C7021
:1008500030E0002326E00C26B4FBF6F6F6004FF05D
:10086000800808FA06F832F8156048FA03F818EA22
:10087000060F01D10C2C08D94FF0010808FA03F833
:1008800016EA080F07D10C2C05D90CEB4106B9F874
:100890000240345204E00CEB4106B9F800403452F7
:1008A000491C5B1CBC889C42D5D8BB88C3F54873E7
:1008B00019446D1CFB88AB42CBD8BDE8F083000027
:1008C000340000202DE9F04352420023022404EBBF
:1008D00042041B4D2F886E68CD1805EBC508A0EBB0
:1008E000020C08EB05150CEB451826F8187000EB08
:1008F000020808EB451526F81570CD1A05EBC50959
:1009000009EB051508EB451826F818700CEB451592
:1009100026F8157025469D4208DC5B1C04EB430459
:10092000641CDA4202D1954200DC0025954203DDC9
:10093000521C04EB4204641C002ACDDDBDE8F083A8
:10094000340000202DE9F74F07468846029803211E
:10095000A1EB40060024029D4FF6FF7935E09DB1E2
:1009600009EA4502A8EB050A381B93461FFA8AF1EB
:1009700080B2012300F074F838195A461FFA8AF140
:1009800080B2012300F06CF89CB109EA4402A8EBA4
:10099000040A781B93461FFA8AF180B2012300F003
:1009A0005FF878195A461FFA8AF180B2012300F0E5
:1009B00057F8002E03DA06EB8406B61D04E0601B30
:1009C00006EB80060A366D1E641CAC42C7D9029A3B
:1009D00003B041463846BDE8F04FFFF773BF000053
:1009E0002DE9F0478AB015469946DFF87080B8F8CF
:1009F0000040E60A04F01F07C4F3451401EBC102EE
:100A000002EB011100EB4110D8F8041001EB400A91
:100A1000FFF7BCFC4FF4403000900220019003949B
:100A2000029704960F200590CDF818A0C5F54870E0
:100A30000790CDF8209009956846FFF7BDFCFFF7B9
:100A400017FD0220FFF7AEFC0028FAD0B8F800002E
:100A500000F0F6FA0AB0BDE8F0870000340000208C
:100A60002DE9F0438BB01446984601EBC10202EB2E
:100A7000011100EB41111948426802EB4105008861
:100A8000C60A00F01F07C0F34519FFF77FFC4FF4BB
:100A90004030019002200290CDF810900397059607
:100AA0000F20069007950120B8F1000F11D040F2F9
:100AB0001F31089109940A9001A8FFF77DFCFFF708
:100AC000D7FC0220FFF76EFC0028FAD00BB0BDE87F
:100AD000F0830021089109900A94EDE7340000208A
:100AE0002DE9F04106460D4617461C4600233A46BE
:100AF00029463046FFF7B4FF281981B200233A4651
:100B00003046FFF7ADFF0123224629463046FFF766
:100B1000A7FFF01922462946BDE8F04180B2012323
:100B2000FFF79EBF2DE9F84F84460F460026A2EB43
:100B30000C00002801DCACEB020000B2D91B00293C
:100B400000DCF91A09B20FFA8CF43DB24FF0FF3A0B
:100B5000624503D34FF00108C14601E0D046D146BB
:100B6000BB4203D34FF0010AD34600E0D34688428C
:100B700009DB4FF00008C34600EBD072521013B2ED
:100B80000091074622E04FF00009CA4601EBD172FE
:100B9000521013B200900F4618E02946204600F08C
:100BA00017FE0098184403B2BB4207DBD81B03B200
:100BB00004EB080004B205EB0A0005B204EB0900DF
:100BC00004B205EB0B0005B2761C36B2BE42E4DD82
:100BD000BDE8F88F2DE9FC5F012140F2FF1000F025
:100BE0000FFE4FF00408CDF8008002208DF80500BC
:100BF0008DF8040000208DF806008DF80700694686
:100C0000AA48FFF749FD0E220221A848FFF782FDFE
:100C10004FF00809CDF800906946A448FFF73CFD65
:100C20000E220321A148FFF775FD4FF4807ACDF81D
:100C300000A069469D48FFF72FFD0E2208219B4822
:100C4000FFF768FD0124009469469948FFF724FDE9
:100C5000092200219648FFF75DFD4FF4006BCDF8A7
:100C600000B069469348FFF717FD0E220B2191480B
:100C7000FFF750FD2003009069468E48FFF70CFDFA
:100C80000E220C218B48FFF745FD0220009069469B
:100C90008748FFF701FD092201218548FFF73AFD4A
:100CA0004025009569468448FFF7F6FC0E22062190
:100CB0008148FFF72FFD2020009069467F48FFF70D
:100CC000EBFC0E2205217D48FFF724FD00956946C7
:100CD0007A48FFF7E1FC0E2206217848FFF71AFD5B
:100CE0006003009069467148FFF7D6FC0E220D2183
:100CF0006E48FFF70FFDA602009669466E48FFF7A3
:100D0000CBFC09220A216C48FFF704FDE0030090A8
:100D100069466648FFF7C0FC0E220F216348FFF7C3
:100D2000F9FC009469466648FFF7B6FC0E220021E4
:100D30006348FFF7EFFC8027009769466148FFF79B
:100D4000ABFC0E2207215F48FFF7E4FCCDF80080E2
:100D500069465B48FFF7A0FC0E2202215848FFF7C6
:100D6000D9FC4FF01008CDF8008069465348FFF7D2
:100D700093FC0E2204215148FFF7CCFC2003009085
:100D800069464D48FFF788FC0E220C214A48FFF7C0
:100D9000C1FC00954C4D69462846FFF77DFC0E22AC
:100DA00006212846FFF7B6FCCDF800B06946424858
:100DB000FFF772FC0E220B213F48FFF7ABFCCDF88A
:100DC000008069463E48FFF767FC0E2204213C483C
:100DD000FFF7A0FCCDF8009069463648FFF75CFCB1
:100DE0000E2203213348FFF795FCCDF800A0694699
:100DF0002F48FFF751FC0E2208212D48FFF78AFCEF
:100E00004FF40079CDF8009069462948FFF744FC7B
:100E10000E2209212648FFF77DFC009769462648E7
:100E2000FFF73AFC0E2207212348FFF773FC0096D8
:100E300069462348FFF730FC0E220A212048FFF7BD
:100E400069FCCDF8009069461D48FFF725FC0E228D
:100E500009211B48FFF75EFC00961C4E6946304690
:100E6000FFF71AFC0E220A213046FFF753FCCDF89B
:100E7000008002208DF805008DF8044000208DF8D8
:100E800006008DF8074069462846FFF705FC0097E5
:100E900069462846FFF700FC10212846FFF74AFC68
:100EA00080212846FFF746FCBDE8FC9F001C02405D
:100EB00000040240000002400018024000100240FE
:100EC0000020024000080240000C024000140240D2
:100ED0000148C068704700003400002010B590B091
:100EE0000121880600F0B6FC0121C80500F088FC4D
:100EF000FFF770FE00F006FF0024019402940394B3
:100F000004940D940E940F94042207214FF4C070A2
:100F100000F02CFD4FF4803000F018FD012000F0AF
:100F20001FFD3D2000F0F6FC0028FAD00594069441
:100F30002E2007901720089040F24E30099040F282
:100F4000F7100A9040F262300B9040F20D200C90A6
:100F500001A800F037FB10B010BD000030B591B013
:100F60002F20019040F24E3002901820039040F262
:100F7000F710049003240594FF20069000200790AA
:100F8000089009900A904FF480600B9005200C9017
:100F900040F243600E90C01E0F904FF4F07010901E
:100FA0004FF050400D90144D01A9284600F06CFB05
:100FB000059412490D9161020B9107210C910E4C81
:100FC00001A98034204600F05FFB012000F0A8FB5F
:100FD0000121284600F04CFB0121204600F048FB8F
:100FE000012000F09DFB064800F012F8012000F0FF
:100FF000D9FA11B030BD00008468014000B80BD0B0
:101000002C000020014A10805180704734000020DD
:101010000149C860704700003400002006490028DC
:1010200004D0064848600120886070474FF0504067
:1010300048600020886070473400002000B80BD062
:1010400001490880704700003400002010B50949AC
:101050008968002908D00146074800F007FBBDE871
:101060001040012000F05CBB01460348803800F0CE
:10107000FDFAF4E734000020046901402DE9F04F47
:1010800099B0D74D2878401C28700120FFF7C6FF83
:10109000FF20FFF7DBFF4FF400463046FFF74CFB25
:1010A0004FF6FF7431462046FFF7ACFFCD48FFF7FF
:1010B000AFFFFFF70DFFC088CBA1FFF79BFBFFF74A
:1010C00007FFC088CEA104EA4000FFF793FBFFF7BB
:1010D000FFFEC088D1A100EB400080B2FFF78AFB81
:1010E000FFF7F6FEC088D6A104EA8000FFF782FB76
:1010F000FFF7EEFEC088DAA100EB800080B2FFF7B8
:1011000079FBFFF7E5FEC088E2A100EB400004EAAE
:101110004000FFF76FFB2A78E7A1684600F0B2FFB6
:10112000FFF7D6FEC088C0EBC00080B2FFF736FBE9
:10113000FFF7CEFEC0886946C0EBC00080B2FFF763
:1011400059FB48F21F0A5046FFF77AFFFFF7C0FE2F
:10115000C08804EAC000FFF721FBFFF7B9FEC08892
:10116000DEA104EAC000FFF745FB4FF47C4731469F
:101170003846FFF747FFFA2340F2EE284246194669
:101180003220FFF7CFFC4FF496752B464246294696
:101190003220FFF7C7FC48F2E03831464046FFF7FF
:1011A00031FF4FF4C8794B464A46FA212846FFF7EB
:1011B000B9FC68004B460246FA21FFF7B3FC4FF436
:1011C000FA7B584602F0D9F831463046FFF71AFF4D
:1011D0004FF48C734FF44872C8210020FFF700FCD5
:1011E0005046FFF72DFFFFF773FEC08804EAC000EA
:1011F000FFF7D4FAFFF76CFEC088BBA104EAC00079
:10120000FFF7F8FA31463846FFF7FCFEC8226423A0
:10121000FA211046FFF764FC31464046FFF7F2FE24
:101220004FF4AF793223C822FA214846FFF758FC21
:1012300031465046FFF7E6FEC8233222494618469B
:10124000FFF74EFC584602F098F831463046FFF75B
:10125000D9FE4FF48C734FF44872C8210020FFF779
:10126000BFFB5046FFF7ECFEFFF732FEC08804EAF2
:10127000C000FFF793FAFFF72BFEC0889DA104EA98
:10128000C000FFF7B7FA31463846FFF7BBFEC82269
:101290006423FA211046FFF7A3FB31464046FFF7CF
:1012A000B1FE3223C822FA214846FFF799FB3146A6
:1012B0005046FFF7A7FEC823322249461846FFF7DB
:1012C0008FFB584602F059F831463046FFF79AFE38
:1012D0004FF48C734FF44872C8210020FFF780FB55
:1012E0005046FFF7ADFEFFF7F3FDC08804EAC000EB
:1012F000FFF754FAFFF7ECFDC08882A104EAC000B2
:10130000FFF778FA39463846FFF77CFE3222494625
:10131000C820FFF7D7FA41464046FFF773FE4B223D
:1013200049464846FFF7CEFA584602F026F83146BD
:101330003046FFF767FE4FF48C734FF44872C821B4
:101340000020FFF74DFB5046FFF77AFEFFF7C0FD88
:10135000C08804EAC000FFF721FAFFF7B9FDC08892
:101360006CA104EAC000FFF745FA31463846FFF7A2
:1013700049FE322249462846FFF7E4FA3146404604
:10138000FFF740FE4B2249464FF4E170FFF7DAFACF
:10139000584601F0F2FF31463046FFF733FE4FF476
:1013A0008C734FF44872C8210020FFF719FBFFF738
:1013B0008FFDC08804EAC000FFF7F0F9584601F03D
:1013C000DCFF31463046FFF71DFE4FF48C734FF4BF
:1013D0004872C8210020FFF703FB19B0BDE8F08F69
:1013E000240000202C000020424820352E302069A7
:1013F0006E6368204C434420706172613A000000C3
:10140000496D616765207265736F6C7574696F6E85
:101410003A3830307834383020707800546F756343
:1014200068207061643A3520706F696E7420746F43
:1014300075636820737570706F7274656400000066
:101440005573652053544D33322D4C54444320641E
:1014500069726563746564206472697665722C00D4
:101460006E6F2065787465726E206C6364206472A0
:1014700069766572206E65656465642C52474238F2
:1014800038382C323462697473206461746120626C
:1014900075730000546F7563682070616420757304
:1014A000652049494320746F20636F6D6D756E69C7
:1014B0006361746500000000446973706C61792099
:1014C00076616C75652064656D6F3A207465737420
:1014D000436F756E74203D2025642000447261774F
:1014E000206C696E653A0000447261772052656332
:1014F000743A0000447261772046756C6C20526526
:1015000063743A004472617720636972636C653A70
:1015100000000000447261772066756C6C2063697E
:1015200072636C653A0000002DE9FC4101218020C6
:1015300000F066F94FF48064009401208DF80400F7
:1015400000218DF806108DF807008DF805100C4F5E
:1015500069463846FFF7A0F86600009669463846A7
:10156000FFF79AF8A500009569463846FFF794F80A
:1015700003481830048006800580BDE8FC81000027
:10158000001C02400649002804D0086840F0010011
:1015900008607047086820F001000860704700008C
:1015A000186801400649002804D0086840F48030DB
:1015B00008607047086820F48030086070470000B9
:1015C0001868014030B5264A136826490B4013605D
:1015D000038A1B04146845692C431C431460121DC4
:1015E00013680B401360038B1B041468C5692C43FC
:1015F0001C431460121D13680B401360038C1B0402
:101600001468456A2C431C431460121D13680B4078
:101610001360018D09041368C46A23430B431360EC
:10162000111D0A68104B1A400A60D0E900231A43C2
:10163000D0E9023423431A430B681A430A60416B12
:101640000A02018E0B04064924310C6804F07F4421
:101650000C600C68806B134304431C430C6030BD6A
:101660000868014000F800F08F88FE0F4161704764
:10167000002904D0016841F0010101607047016850
:1016800021F001010160704770B58A881204436837
:1016900003F4704343600B68134343608A89120468
:1016A000836803F4704383608B681343836002692B
:1016B00022F0070202610A690261CA6913020A8CF8
:1016C000120491F8244024068569002585618E69FD
:1016D00022431E4316438661426922F0FF024261A3
:1016E0004A694261C26940F207739A43C261D1E913
:1016F0000A231A43C261826A85620A6B82620A8F78
:101700001204C36A03F0E023C3624B6B1343C3624A
:10171000026B6FF30A020263C96B016370BD0000C4
:1017200001490860704700002468014008B54FF483
:10173000A06000F043F825208DF8000001208DF80E
:1017400001008DF802008DF80300684600F002F8F1
:1017500008BD000030B50F23C27801250178002AAA
:101760001FD0154A126802F4E062C2F5E062C2F3CB
:101770000722C2F10404D3404278A24084781C407E
:101780001443220101F1E02181F80024007800F0E7
:101790001F018D404009800000F1E020C0F8005199
:1017A00030BD01F01F0085404809800000F1E020B5
:1017B000C0F8805130BD00000CED00E00249084344
:1017C00002490860704700000000FA050CED00E0D7
:1017D000B0F5487F10D800290EDBB1F5F07F0BDCA7
:1017E00001EBC10202EB011100EB411003494A6811
:1017F00002EB40000988018070470000340000209F
:10180000054A002903D0116801431160704711682F
:10181000814311607047000030380240054A0029BA
:1018200003D0116801431160704711688143116052
:101830007047000010380240054A002903D01168A3
:1018400001431160704711688143116070470000C7
:1018500038380240054A002903D01168014311605D
:10186000704711688143116070470000443802409E
:1018700070B5244B196801F00C01234C00291ED0CF
:10188000224E04291DD008291DD00460196801F0DA
:10189000F00109091E4A545C0168E14041601C687E
:1018A00004F4E054A40A145D21FA04F484601B6873
:1018B00003F460435B0BD25CD140C16070BD046037
:1018C000E4E70660E2E70F4A121F1168C1F3805592
:1018D000116801F03F0135B1B6FBF1F11468C4F3B2
:1018E0008814614305E0B4FBF1F11468C4F3881473
:1018F00061431268C2F30142521C5200B1FBF2F183
:101900000160C3E7083802400024F40040787D01FC
:101910001400002002460020510901290BD00229A1
:101920000DD00949096802F01F02012393400B42C0
:1019300000D001207047044974390968F3E702496F
:10194000091F0968EFE7000074380240034A116874
:1019500021F4403101431160704700008C3802408F
:10196000014908677047000000004742800140EAD3
:101970000160024940EA02700860704788380240FE
:101980002DE9FC5F0121FC20FFF73AFF02208DF8D2
:1019900004008DF8050000208DF806008DF8070082
:1019A000012000906946D148FEF776FE0C22002106
:1019B000CE48FEF7AFFE022000906946CB48FEF706
:1019C0006BFE0C220121C948FEF7A4FE0420009002
:1019D0006946C648FEF760FE0C220221C348FEF7A6
:1019E00099FE082000906946C048FEF755FE0C227B
:1019F0000321BE48FEF78EFE102700976946BB48BC
:101A0000FEF74AFE0C220421B848FEF783FE4FF091
:101A10002008CDF800806946B448FEF73DFE0C2250
:101A20000521B248FEF776FE4FF48059CDF80090BC
:101A30006946AE48FEF730FE0C221146AB48FEF771
:101A400069FE4FF4005ACDF800A06946A748FEF79A
:101A500023FE0C220D21A548FEF75CFEBD02009579
:101A60006946A248FEF718FE0C220E219F48FEF799
:101A700051FE6C00009469469C48FEF70DFE0C2256
:101A80000F219A48FEF746FE0120009069469848CB
:101A9000FEF702FE0C2200219548FEF73BFE0220D5
:101AA000009069469248FEF7F7FD0C22012190480C
:101AB000FEF730FE009569468E48FEF7EDFD0C22DC
:101AC0000E218C48FEF726FE009469468948FEF7F1
:101AD000E3FD0C220F218748FEF71CFE0120009039
:101AE00069468448FEF7D8FD0C2200218148FEF7A4
:101AF00011FE0220009069467E48FEF7CDFD0C22C3
:101B000001217C48FEF706FE4FF0800BCDF800B0B7
:101B100069467948FEF7C0FD0C2207217648FEF79A
:101B2000F9FDE611009669467348FEF7B5FD0C22F3
:101B300008217148FEF7EEFDA011009069466E483D
:101B4000FEF7AAFD0C2209216B48FEF7E3FD6011A8
:101B5000009069466848FEF79FFD0C220A216648FE
:101B6000FEF7D8FD2011009069466348FEF794FD0A
:101B70000C220B216048FEF7CDFDCDF800906946A0
:101B80005D48FEF789FD0C2211465B48FEF7C2FD59
:101B9000CDF800A069465848FEF77EFD0C220D21C5
:101BA0005548FEF7B7FD009569465348FEF774FDAA
:101BB0000C220E215048FEF7ADFD009469464E48B8
:101BC000FEF76AFD0C220F214B48FEF7A3FD00969D
:101BD00069464848FEF760FD0C2208214548FEF79B
:101BE00099FDA011009069464248FEF755FD0C2270
:101BF00009214048FEF78EFD6011009069463D487E
:101C0000FEF74AFD0C220A213A48FEF783FD4020E8
:101C100000903A4D69462846FEF73EFD0C2206210B
:101C20002846FEF777FD009769463148FEF734FDF8
:101C30000C2204212E48FEF76DFDCDF80080694688
:101C40002B48FEF729FD0C2205212948FEF762FDED
:101C5000012000902A4F69463846FEF71DFD0C22F0
:101C600000213846FEF756FD2011009069461F48B6
:101C7000FEF712FD0C220B211C48FEF74BFD0094D1
:101C800069461B48FEF708FD0C220F211848FEF795
:101C900041FD009669461648FEF7FEFC0C2208211D
:101CA0001348FEF737FDCDF800B069462846FEF729
:101CB000F3FC0C2207212846FEF72CFD02200090A1
:101CC00069460D48FEF7E8FC0C2201210A48FEF7A0
:101CD00021FD0120009069460748FEF7DDFC0C223B
:101CE00000210548FEF716FDBDE8FC9F00140240E8
:101CF00000180240000C024000100240001C02408C
:101D00000008024000B593B0FFF73AFE01210846F3
:101D1000FFF792FD02200190072202920421039115
:101D200004920590069007900120089000200990E9
:101D30000A9110210B9140210C914FF4C0710D912B
:101D40000E904FF400610F9110908800119001A83F
:101D5000129008A8FEF714FC00F002F813B000BDC2
:101D60002DE9FF41012500950826019602950024E2
:101D7000039420210120FEF7D7FB0028F9D1684603
:101D8000FEF7EEFB0A2000F041F8022000900196D9
:101D90000295039420210120FEF7C6FB0028F9D10B
:101DA0006846FEF7DDFB03200090019604270297AA
:101DB000039420210120FEF7B7FB0028F9D16846E3
:101DC000FEF7CEFB20210120FEF7AEFB0028F9D163
:101DD0006846FEF7C5FB40F2312000970196029558
:101DE000039020210120FEF79FFB0028F9D16846CF
:101DF000FEF7B6FB40F26A50FEF746FC20210120B8
:101E0000FEF792FB0028F9D1BDE8FF8101B581B052
:101E1000054901984843009002E00098401E009058
:101E200000980028F9D10CBDA08601001CB5002146
:101E3000019100912E4A106840F4803010604FF4F8
:101E4000A043106800F4003000900198401C0190FD
:101E5000009810B901989842F3D11068800302D518
:101E60000120009000E00091009801283FD1204817
:101E70004030016841F0805101601E49086840F41B
:101E8000404008601A48083003680360036843F460
:101E900000430360036843F4A0530360041F164B20
:101EA0002360136843F08073136013689B01FCD5B3
:101EB0000A6842F480320A604A68D203FCD50A6894
:101EC00042F400320A604A689203FCD50B4A40F2A1
:101ED00005711160016821F003010160016841F0A2
:101EE000020101600168C1F381010229FAD11CBD20
:101EF0000038024000700040195A4007003C024080
:101F000010B500F061FE01F0A3FBBDE8104000F049
:101F100069BE000010B50F48016841F00101016081
:101F20000C4A00210832116002680B4B1A40026013
:101F3000031D0A4A1A60026822F4802202600548E2
:101F40000C300160FFF772FF05494FF00060086038
:101F500010BD000000380240FFFFF6FE10300024E4
:101F600008ED00E0002904D0818941F4005181810D
:101F70007047818921F40051818170470246002019
:101F800012880A4200D00120704710B540F66A134B
:101F9000C1F3421301F01F040121A140012B07D01E
:101FA000022B07D014303AB102680A43026010BD18
:101FB0000C30F8E71030F6E702688A43026010BD83
:101FC0007FB504460D46208A20F44051E888084336
:101FD0002082A08941F20C618843A9882A89114393
:101FE0006A8902431143A181A08A20F44071A88923
:101FF0000843A0826846FFF73BFC1E48844202D09B
:102000001D48844201D1039800E00298A189090487
:1020100008D500EBC00101EB001029684900B0FBB6
:10202000F1F007E000EBC00101EB00102968890026
:10203000B0FBF1F06422B0FBF2F109010B096FF083
:1020400018056B4300EB8300A3891D044FF0320396
:1020500007D503EBC000B0FBF2F000F00700084327
:1020600006E003EB0010B0FBF2F000F00F000843B5
:1020700020817FBD0010014000140140C1F3080120
:10208000818070470FB4084B10B504A902AA0398C9
:1020900000F04AF8044602A9002000F0D7FA2046D2
:1020A00010BC5DF814FB00004D260008002807D086
:1020B0000F4910F0FF0F05D0C0B2085C401C7047FC
:1020C0000020704710F47F4F04D0C0F30720085C55
:1020D0000930704710F47F0F04D0C0F30740085C4C
:1020E0001130704701EB1060007819307047000024
:1020F000344D000802E008C8121F08C1002AFAD1B6
:1021000070477047002001E001C1121F002AFBD177
:102110007047000003480168814201D001207047E8
:1021200000207047B00000202DE9FF4F8DB00F4612
:102130000546002606E025280BD0DDE90F12904762
:102140006D1C761C28780028F5D111B03046BDE80A
:10215000F08F0024A246A1460122EC4900E004438E
:1021600015F8013F203B02FA03F00842F7D1287826
:102170002A2810D06FF02F022878A0F13001092909
:1021800014D80AEB8A0102EB410144F0020400EB8F
:10219000010A6D1CF0E701CF5FEA000A03D544F4A1
:1021A0000054CAF1000A44F002046D1C28782E285D
:1021B00017D115F8010F44F004042A280ED06FF04F
:1021C0002F022878A0F1300109290AD809EB8901EA
:1021D00002EB410100EB01096D1CF2E757F8049B8B
:1021E0006D1C28786C280FD006DC4C2817D0682886
:1021F0000DD06A2814D104E0742810D07A280FD1A9
:102200000DE044F400140AE044F4801401E044F4C6
:1022100040146978814202D104F580146D1C6D1C54
:102220002A786E2A1FD00CDC632A31D004DC002A05
:102230008BD0582A11D1A3E0642A68D0692A0CD126
:1022400065E0732A2ED004DC6F2A73D0702A04D183
:102250009BE0752A6FD0782A6ED01046DDE90F1208
:102260009047761C50E1C4F30250022806D00328A0
:1022700009D0042801CF09D0066045E101CFF1174C
:10228000C0E9006140E101CF06803DE106703BE11D
:1022900017F8040B8DF8000000208DF80100EB46C4
:1022A000012003E057F804BB4FF0FF3061074FF007
:1022B000000102D40DE008F10101884649450FDA1A
:1022C0008045F8DB1BF808100029F4D108E008F17C
:1022D000010188468142FADB1BF808100029F6D17B
:1022E000DDE90F23AAEB08008146214600F036F90C
:1022F000304400EB080604E0DDE90F121BF8010B87
:102300009047B8F10108F7D221464846F7E00A2184
:10231000C4F302534FF0000B0891022B04D001CFFD
:10232000C117032B09D00AE0FF1D27F00707F7E8C4
:10233000020108E032E01FE020E000B2C117042BE8
:1023400001D140B2C117031E71F1000307DA4FF04B
:10235000000CD0EB0C006CEB01012D2302E02305F7
:1023600004D52B238DF82430012303E0E30701D0AB
:102370002023F7E7984658E00A2110E010210EE0EC
:1023800010204FF0000B08900CE010214FF0000BD4
:1023900044F004044FF00809089103E008214FF0CD
:1023A000000B0891C4F30253022B04D001CF00218B
:1023B000032B06D006E0FF1D27F00707F7E8020110
:1023C00003E080B2042B00D1C0B24FF00008230715
:1023D0002BD5702A07D0DDF820C08CF0100C5CEAF9
:1023E0000B0C05D00EE040238DF82430012308E0CB
:1023F00050EA010306D030238DF824308DF82520D3
:1024000002239846DDF820C08CF0080C5CEA0B0C27
:102410000BD150EA010301D1630706D530238DF8B3
:1024200024304FF00108A9F10109582A04D038A23C
:102430000B9208AA0A920BE03AA2F9E75B46089AC7
:10244000FDF73AFF0B9B9B5C0A9A521E0A9213708F
:1024500050EA0102F2D10A98ADEB000000F1200B26
:10246000600702D524F4803401E04FF00109D9451A
:1024700002DDA9EB0B0000E0002000EB0B01414462
:102480000890AAEB010AE00306D4DDE90F232146F8
:10249000504600F063F806444FF0000908E009A92F
:1024A00011F80900DDE90F12904709F10109761CC6
:1024B000C145F4DBE0030CD5DDE90F23214650468E
:1024C00000F04CF8064404E0DDE90F12302090479C
:1024D000761C0899481E08900029F5DC08E00A9847
:1024E0000A990078491C0A91DDE90F129047761C81
:1024F000BBF10001ABF1010BF1DC21465046DDE9F7
:102500000F2300F019F806446D1C1BE60928010092
:102510003031323334353637383961626364656659
:10252000000000003031323334353637383941421B
:1025300043444546000000002DE9F04104460025D3
:102540001E461746880404D405E039462020B047CB
:102550006D1C641EF9D52846BDE8F0812DE9F041D7
:10256000044600251E469046C80301D5302700E0EA
:102570002027880404D505E041463846B0476D1C45
:10258000641EF9D52846BDE8F08100002DE9FC4124
:102590001F46DDE90A65DDE90831044604F114004F
:1025A000406000601C346260A760E36021610A46FD
:1025B0002321184600F022FCD4E903014218D4E993
:1025C0000101121F0D4B00F0E1FA2060A67666763D
:1025D0000020E06125626562606120766065A0652B
:1025E0001C3C009001902346054A214604F144001A
:1025F00001F0A4F80020BDE8FC8100008133000850
:10260000C535000810B5029C24F001044472C16174
:10261000026200218162436200EBC1021432526007
:102620001260491C0129F7DB10BD10B5002200EB38
:10263000C2011431D1E900436360D1E90034236061
:1026400049600960521C012AF1DB10BD0A68531C65
:102650000B601070704700001CB514200321CDE9F9
:1026600000104FF400730022064907A000F05FFE3F
:102670000749486018B100F071FF00201CBD4FF001
:10268000FF301CBD5F3B00087465737400000000E0
:102690002400002010B500F0E7F8BDE81040FFF777
:1026A000DBBF000030B5134C41682268114402F1D1
:1026B000080388420DD04D885DB96568A94208D0ED
:1026C000A5688D4200D1A0604D6845604968851AB3
:1026D000CD508168114481420BD04D88002D08D126
:1026E000A568854200D1A16044684C604068891AA1
:1026F000C15030BD4C0000202DE9FF4FDDE90DB683
:102700000F9D6C0602D5DFF814A103E0DFF80CA1E1
:10271000AAF1110AEC0601D525F00105EC0702D05B
:102720004FF0300901E04FF020090027AC070BD52E
:10273000002A02DA2D27524206E06C0701D52B272A
:1027400002E02C0700D520270024EE467AB930227B
:1027500001248DF800200CE00A2B15D002F00F08A0
:102760001209A4461AF80880641C0EF80C80002A8E
:10277000F2D1B44200DD2646ABEB060215F0110F94
:102780004FF0200309D016E04FF00A0CB2FBFCF822
:102790000CFB1828B2FBFCF2E3E73FB1002A05DD91
:1027A000521E03E0884200D80370401CB2F1000CB6
:1027B000A2F10102F6DC27B1884201D80770521E4F
:1027C000401CED0605D508E0884201D880F800904D
:1027D000401C151EA2F10102F6DC302703E08842FE
:1027E00000D80770401C3546761EA542F7DC05E090
:1027F000884202D81EF804500570401C251EA4F122
:102800000104F5DC03E0884200D80370401C141E6C
:10281000A2F10102F7DC04B0BDE8F08F454E0008DC
:102820001CB502211420CDE900100B02002204493E
:1028300004A000F07CFDBDE81C4000F08FBE00004D
:10284000952600086D61696E0000000070B5044CAB
:10285000044D02E020688047241DAC42FAD370BDCD
:102860005C4E0008604E000870B5044C044D02E058
:1028700020688047241DAC42FAD370BD604E00082A
:10288000644E000810B5FDF7ADFC044A5188491CA0
:102890005180BDE81040FDF7A9BC0000A400002055
:1028A00010B5FDF79FFC094A5188491E09B25180B5
:1028B000002907DC00215180FDF798FCBDE810409D
:1028C00000F03CBBBDE81040FDF790BCA400002028
:1028D00070B5002833D01A4D296888422FD3696813
:1028E00088422CD2A0F10C044FF0FF31154800F0C3
:1028F000E0FB60884FF4F55610B12088B04208D054
:1029000011A000F0ABF923886288214615A000F0E1
:10291000A5F9002060802680A868844200D2AC60BF
:1029200029686068611A401A2969081A28612046D6
:10293000FFF7B8FEBDE87040024800F09CBB70BDD8
:102940004C000020CC120020746F20667265652058
:102950006120626164206461746120626C6F636BEA
:102960003A0A00006D656D3A203078253038782CB1
:10297000207573656420666C61673A2025642C209D
:102980006D6167696320636F64653A203078253034
:1029900034780A0000487047D4000020004870478F
:1029A000D410002010B522484FF47A710068B0FBB3
:1029B000F1F0401EB0F1807F09D24FF0E021486174
:1029C0001C4AF02010700020886107200861FEF783
:1029D000ABFDFDF755FDFEF781FAFEF7BFFA0120CA
:1029E000FEF7D0FD0020FEF719FB4FF4004420460F
:1029F000FDF7A2FE0120FEF711FBFF20FEF726FBEC
:102A00002046FDF799FE0C4861110180C114018038
:102A100009498014891C0880FFF718FFFFF7BEFFE3
:102A20000446FFF7B7FF2146BDE8104000F0ECBBBD
:102A30000000002023ED00E0181C024070B50446A1
:102A4000FFF720FF0F4D16E00A2809D10D21284677
:102A5000FFF714FB80212846FFF790FA0028F9D0F1
:102A600014F8011B2846FFF709FB80212846FFF7D1
:102A700085FA0028F9D020780028E5D1BDE870401B
:102A8000FFF70EBF0010014010B50446174801685B
:102A9000002903D020468847002826D014A0E169E9
:102AA00000F0DCF816A0A16900F0D8F818A0616960
:102AB00000F0D4F81AA0216900F0D0F81CA0E16859
:102AC00000F0CCF81EA0A16800F0C8F820A0616852
:102AD00000F0C4F822A0216800F0C0F800F018FD52
:102AE000014623A000F0BAF8FEE710BDC4000020A4
:102AF0007073723A203078253038780A0000000070
:102B00002070633A203078253038780A00000000C1
:102B1000206C723A203078253038780A00000000A6
:102B20007231323A203078253038780A00000000BF
:102B30007230333A203078253038780A00000000AF
:102B40007230323A203078253038780A00000000A0
:102B50007230313A203078253038780A0000000091
:102B60007230303A203078253038780A0000000082
:102B700068617264206661756C74206F6E20746881
:102B8000726561643A2025730A00000070B506463C
:102B9000121D22F00700A0F1400528460022094C32
:102BA00040F82240521C102AFAD3016200214162EF
:102BB0008162C1620163436386634FF08071C163C8
:102BC000284670BDEFBEADDE10B5FDF70BFB044A25
:102BD0001178491C1170BDE81040FDF707BB0000DB
:102BE0004800002010B5FDF7FDFA044A1178491E8F
:102BF0001170BDE81040FDF7F9BA00004800002050
:102C00002DE9F04105460E461446304600F0B9FC69
:102C100006F1140714B1012C1DD104E039462846F1
:102C200000F043F817E02C680DE0A4F1140096F8CA
:102C3000351090F83520914204D23946143000F016
:102C400034F802E02468AC42EFD1AC4203D13946FB
:102C5000284600F02AF80020BDE8F0810FB408B53E
:102C600003AB00937F210548029A00F0FFFD034863
:102C7000FFF7E4FE01B05DF814FB00004C120020E9
:102C80000268516002680A6001604860704702682B
:102C9000516002680A6001604860704702685160D4
:102CA00002680A60016048607047426811604268CB
:102CB0004A604160086070470168814201D101208B
:102CC0007047002070470168814201D101207047A0
:102CD00000207047D0E900215160D0E90012116056
:102CE000406000607047D0E900215160D0E90012D7
:102CF00011604060006070472DE9F047002809D05E
:102D0000C01C20F003053B4EF068854204D900202A
:102D1000BDE8F0870020FBE70C2D00D20C254FF01A
:102D2000FF31354800F0C5F9B7683168781AD6F830
:102D30000CC0ACEB050356E00C1862888ABB6268D5
:102D4000121A0C3AAA424DD3626805F11803121AFE
:102D50000C3A4FF001094FF4F5589A4222D3431927
:102D60000C33CA18A2F800804FF0000AA2F802A0A3
:102D7000D4F804A0C2F804A090606360A4F80290A4
:102D800050680CF10C0C604502D001F10802835030
:102D9000306928440C303061726982420ED2706111
:102DA0000CE01FE0A4F802906068621A801A326991
:102DB000104430617269824200D27061A4F80080D0
:102DC000BC4203D008E040680844B060B068428864
:102DD00012B172689042F6D1074800F04CF904F144
:102DE0000C0095E760688342A6D8034800F043F9D9
:102DF00000208DE74C000020CC12002010B50346C7
:102E0000CCB2042A15D3810713D1014644EA042326
:102E100043EA034305E00B604B608B60CB601031ED
:102E2000103A102AF7D201E008C1121F042AFBD27F
:102E30000B46E1B201E003F8011B521E541CFAD10B
:102E400010BD2DE9F04106460F46304600F03EF831
:102E50000546E868FFF750FF0446ACB12672002033
:102E6000607208223946204600F0BAF9FDF7BAF937
:102E7000064604F10C01281DFFF702FF3046FDF75E
:102E8000B5F92046BDE8F0810020FBE770B50446A7
:102E9000FDF7A8F9054604F10C00FFF71BFF2846D3
:102EA000FDF7A4F92046BDE87040FFF711BD70B5ED
:102EB0000446FDF797F9054604F10C00FFF70AFFF9
:102EC0002846BDE87040FDF791B900000021074A8F
:102ED00002EB01131B78834202D102EB0110704711
:102EE000491C0429F4DB0020704700006400002026
:102EF0002DE9F04104460D4617462846FFF7E6FF48
:102F0000064645F08000207208223946204600F02F
:102F100067F9FDF767F9054604F10C01301DFFF76D
:102F2000AFFE2846BDE8F041FDF760B9007A000623
:102F300001D50120704700207047000070B5FDF7F3
:102F400051F90546174C608820B12846BDE870400D
:102F5000FDF74CB9A068FFF7A9F8421E124850F8D7
:102F6000321014396068814216D0227061600F4AB5
:102F7000127842B11C311C30FDF73BF92846BDE800
:102F80007040FDF733B91C311C30FDF732F928468B
:102F9000BDE87040FDF72AB92846BDE87040FDF74E
:102FA00025B90000A4000020EC12002048000020F9
:102FB00010B50446FDF716F9024614F8340F20F058
:102FC0000F00401C207060780A49343C01EBC001BE
:102FD00004F114004B6818604B684360486001605E
:102FE0000548A16B836819438160BDE81040104615
:102FF000FDF7FCB8EC120020A400002070B50546D7
:10300000FDF7F0F8014605F11404D4E90020506002
:10301000D4E9000210606460246095F835000A4A23
:1030200002EBC0000268824201D1012000E00020D2
:1030300020B10648AB6B82689A438260BDE870405D
:103040000846FDF7D3B80000EC120020A4000020D1
:103050002DE9F041054616461F460A46012128463D
:10306000FFF746FF2C46143464602460AE836F7211
:103070000020BDE8F08170B504460025FDF7B2F8E8
:10308000064604F11400FFF717FE40B1A08B401C68
:10309000A0833046FDF7AAF8012D06D007E060694D
:1030A000143800F017FA0125F3E7FFF747FF002077
:1030B00070BD73B50446FDF795F80646A08B28B1A0
:1030C000401EA0833046FDF791F821E0019808B337
:1030D00000F01EFA054600202863627A294604F1B2
:1030E0001400FFF78DFD0198002809DD05F144006B
:1030F00001AA0021044600F0F7FA204600F034FB54
:103100003046FDF773F8FFF719FF286B002800D150
:1031100000207CBD3046FDF769F86FF001007CBDF2
:1031200008B509A0FFF79AFD0AA0FFF797FD12A0C6
:10313000032300900022194612A0FFF78FFDBDE87F
:10314000084018A0FFF78ABD0A205C207C202F0AC7
:10315000000000002D205254202D2020202020543B
:103160006872656164204F7065726174696E672072
:1031700053797374656D0A004465632020332032EF
:1031800030313900202F207C205C20202020202579
:10319000642E25642E2564206275696C6420257375
:1031A0000A0000002032303036202D2032303138F5
:1031B00020436F7079726967687420627920727435
:1031C0002D746872656164207465616D0A00000089
:1031D000014600E0491C0A78002AFBD1081A704712
:1031E00010B5002A07D0034611F8014B03F8014B34
:1031F00014B1521EF8D110BD002101E003F8011BEB
:10320000521EFBD110BD000070B505460A46E81CF1
:1032100020F0030122F00303182B21D9A3F1180495
:103220008C421DD3114C5A1A183AE26021604FF4B7
:10323000F5530B800C324A60002088604880486853
:103240000844606003800121418042608260002365
:10325000012207A10848FFF7FBFE2068A06070BDAF
:103260002946BDE8704005A0FFF7F8BC4C000020DF
:103270006865617000000000CC1200206D656D2053
:10328000696E69742C206572726F7220626567695D
:103290006E206164647265737320307825782C2009
:1032A000616E6420656E642061646472657373206E
:1032B000307825780A00000010B50A4B00245C80A5
:1032C0000020094A02EBC00149600960401C08283F
:1032D000F8DB072018705C609C6002480C3040608E
:1032E000006010BDA4000020EC12002010B5074CB7
:1032F000A068FEF7DBFE401E054951F83000143887
:103300006060BDE810401C30FCF7A1BFA4000020A5
:10331000EC1200200020044A02EBC0014960096061
:10332000401C0028F8D07047BC00002070472DE9F1
:10333000FF478046DDE90C67894692461D464146B7
:103340000020FFF77EFD044620000FD02846FFF73F
:10335000D3FC68B18DE8E10053464A464146204619
:10336000FFF714F9204604B0BDE8F0870020FAE723
:103370002046FFF78BFD0020F5E700F0CFB80000F6
:1033800070B513480468FCF72DFF05462046FFF78B
:1033900035FE042084F8340004F1440000F0BEF946
:1033A0002046FFF7C3FD012801D1206F58B104F179
:1033B00014010848FFF76BFC2846FCF717FFBDE82F
:1033C0007040FFF7BBBD2046FFF771FDF4E700003A
:1033D000A8000020B000002000F002F8FCE7000088
:1033E00070B527E0FCF7FEFE0646FEF793FE68B3D5
:1033F00019480468A4F11405D4E900104860D4E920
:103400000001086064602460FFF73CFA296F09B18D
:10341000284688472846FFF789FD01280FD0FFF787
:103420003FFA3046FCF7E2FEA86AFFF751FA284659
:10343000FFF72CFDFEF76EFE0028D3D170BDFFF71D
:103440002FFA3046BDE87040FCF7D0BE3046BDE8EC
:103450007040FCF7CBBE0000B00000201FB520205C
:10346000C2000721094BCDE90210CDE9003207481F
:103470000023074A07A1783800F010F804B0034889
:10348000BDE81040783800F069B800004C11002009
:10349000D93300087469646C650000002DE9FF5F92
:1034A0008146DDE90E76DDE91054884692469B465A
:1034B000424600214846FFF71BFDCDE90076CDE9E5
:1034C00002545B46524641464846FFF75FF804B057
:1034D000BDE8F09F70B5044694F8340000F00F008A
:1034E000022802D04FF0FF3070BDFCF77BFE05468E
:1034F00004F11400FFF7F7FB04F1440000F09EF91B
:103500002846FCF773FE2046FFF752FD002070BDF1
:103510000148006870470000A8000020F1B5FCF7E2
:1035200061FE05460C480468204600F02AF804F1C4
:1035300044006A460021064600F0D6F8304600F006
:1035400013F92846FCF752FEFFF7F8FC206B801CAD
:1035500000D120630020F8BDA800002010B5343051
:103560008178417001228A404260022100F83419BA
:10357000FFF7B0FFFFF7CCFF08B1FFF7DFFC00203B
:1035800010BD70B5044694F8340000F00F00012817
:1035900002D04FF0FF3070BDFCF724FE054694F8D2
:1035A000340020F00F00801C84F834002046FFF720
:1035B00025FD04F1440000F041F92846FCF716FE11
:1035C000002070BD10B504466FF00100206304F1C7
:1035D0001400FFF788FB2046FFF7EAFCBDE8104027
:1035E000FFF7ACBC70B5FCF7FDFD06461348046858
:1035F00094F8340000F00F0001281AD1D4E9050135
:10360000884216D004F114000546FFF76CFB94F8CD
:1036100035000B4901EBC00041680D6041686960ED
:10362000456028603046FCF7E1FDFFF787FC00208D
:1036300070BD3046FCF7DAFD002070BDA800002008
:10364000EC12002001480068704700004400002090
:1036500010B509490868401C0860FFF759FF016C64
:10366000491E016419B9C16B0164FFF7BBFFBDE8D6
:10367000104000F003B800004400002070B5FFF7D0
:10368000E1FF0646FCF7AEFD054620E0154804685C
:10369000143C6FF00041A06A301A88421CD22046C8
:1036A000FEF7C3FFD4E907108847FFF7CBFF0646B4
:1036B000607A810708D5C10706D020F0010060724A
:1036C000204600F051F802E020F001006072054849
:1036D000FFF7F9FA0028D9D02846BDE87040FCF77A
:1036E00085BD0000BC000020002909D0012904D0BC
:1036F000022908D003290FD10AE0406A10600BE0CC
:103700001168416208E0417A21F00201417203E050
:10371000417A41F0020141720020704770B50546C0
:10372000FCF760FD04462846FEF77FFF2046FCF7C5
:103730005DFD2846FFF7BBFB002070BD2DE9F84377
:103740000746DDE9088415461E460A460921384623
:10375000FFF7CEFB43463246294638460094FEF733
:1037600051FFBDE8F88300002DE9F8430446FCF75B
:1037700039FD05462046FEF758FF607A20F001002B
:1037800060722846FCF732FDFFF75CFF616A08446F
:10379000A062FCF727FD0746DFF89CC0CDF800C00B
:1037A00000226E460CEBC20045680DE00068A0EBFD
:1037B000C201A36A4969994204D0C91A6FF0004353
:1037C000994205D346F8220056F82200A842EDD1CE
:1037D0002AB156F822100831531C46F82310521C07
:1037E000002ADFD01448001FD0F8008008F101083B
:1037F000C0F8008004F114010098FFF74FFA022589
:103800000EE05FEA88700DD1C5F1010004EBC00144
:10381000143156F82000FFF741FA4FEA98086D1C62
:10382000012DEED9607A40F0010060723846FCF755
:10383000DDFC0020BDE8F883BC00002070B5044624
:10384000607AC0070ED0FCF7CDFC05462046FEF797
:10385000ECFE2846FCF7CAFC607A20F0010060729A
:10386000002070BD4FF0FF3070BD00002DE9FF4F0C
:1038700083B082460AEB01077F1E5446A74201D25D
:103880004FF0FF374FF020094FF0250B12E12528AC
:1038900004D0BC4200D82070641C08E100250599C2
:1038A000491C059108782D2814D02B2815D02028E4
:1038B00016D0232817D0302818D04FF0FF384646AE
:1038C000059A1278303A0A2A13D205A800F033F983
:1038D00006461AE045F01005E1E745F00405DEE78D
:1038E00045F00805DBE745F02005D8E745F0010580
:1038F000D5E72A2809D1491C0591069840C80690A9
:10390000002E02DA764245F01005059801782E293E
:1039100018D1401C05900178A1F130020A2A04D286
:1039200005A800F008F9804607E02A2905D1401CC7
:103930000590069850F8048B0690B8F1000F01DA54
:103940004FF000080021059A1078682801D06C28F3
:1039500002D10146521C05920A23059800786F286F
:1039600071D00CDC632820D004DC25286CD05828CA
:103970000DD187E0642801D0692808D186E070283D
:1039800063D073282FD0752871D078287CD0BC42A2
:1039900001D884F800B0641C05990878002868D024
:1039A000BC4200D82070641C81E0E80605D507E021
:1039B000BC4201D884F80090641C761E002EF7DC0F
:1039C000069810F8041B0690C8B2BC4200D82070BC
:1039D000641C04E0BC4201D884F80090641C761E8C
:1039E000002EF7DC63E0069808C8069003B941A3EF
:1039F0001846FFF7EDFBB8F1000F02DD404500DD92
:103A00004046E90605D508E0BC4201D884F800909C
:103A1000641C3146761E8142F6DC002106E0BC4281
:103A200001D81A782270641C5B1C491C8142F6DBA9
:103A300004E0BC4201D884F80090641C3146761E34
:103A40008142F6DC33E01BE014E0701C02D1082652
:103A500045F00105CDE9006806980295102304C8D9
:103A6000069039462046FEF747FE04461FE00FE069
:103A70000AE028E0BC4201D884F800B0641C16E0DB
:103A8000082305E045F04005102301E045F002055C
:103A90006C291BD068291DD0069804C80690CDE972
:103AA0000068394620460295FEF726FE0446059832
:103AB000401C05900598007800287FF4E8AEBC42D1
:103AC00011D8207010E0491E0591F0E7069804C84F
:103AD0000690E4E7069830F8041B06908AB2A8071F
:103AE000DDD512B2DBE7387007B0A4EB0A00BDE801
:103AF000F08F0000284E554C4C29000000207047E4
:103B000000207047002070470020704710B5FCF778
:103B100069FBFEF747FFFFF703FBFFF7FBFBFFF730
:103B2000CBFBFEF77DFEFFF701FCFFF797FCFFF7ED
:103B3000DDFB002010BD10B5024600206FF02F0401
:103B400007E04B1C1360097800EB800004EB400099
:103B5000084411680B78303B0A2BF2D310BDFDF7F7
:103B60008DFAFCE7000000000000000000000000EB
:103B70000000000000000000000000000000000045
:103B80000000000000000000000000000000000035
:103B900000000000000080018001800180018001A0
:103BA000800180018001800180018001800180010D
:103BB0000000000080018001000000000000000003
:103BC0000000000000000000CC00CC00CC00CC00C5
:103BD000CC00CC000000000000000000000000004D
:103BE00000000000000000000000000000000000D5
:103BF00000000000000000000000000000000000C5
:103C0000600C600C600C30063006FE1FFE1F300694
:103C100038071803FE1FFE1F180318038C018C01C0
:103C20008C01000000008000E003F80F9C0E8C1C4B
:103C30008C188C009800F801E007800E801C8C180E
:103C40008C189C18B80CF00FE00380008000000076
:103C5000000000000000000000000E181B0C110CFA
:103C600011061106110311039B018E01C038C06CAF
:103C700060446044304430441844186C0C380000F0
:103C8000000000000000E001F003380718061806E5
:103C90003003F001F000F8009C310E33061E061CC4
:103CA000061C063FFC73F02100000000000000002D
:103CB00000000000000000000C000C000C000C00D4
:103CC0000C000C00000000000000000000000000DC
:103CD00000000000000000000000000000000000E4
:103CE000000000000000000200038001C000C000CE
:103CF00060006000300030003000300030003000E4
:103D00003000300060006000C000C000800100038F
:103D100000020000000020006000C000800180015F
:103D20000003000300060006000600060006000669
:103D3000000600060003000380018001C00060004F
:103D40002000000000000000000000000000000053
:103D5000C000C000D806F807E001300338070000B3
:103D60000000000000000000000000000000000053
:103D70000000000000000000000000000000000043
:103D800080018001800180018001FC3FFC3F8001B7
:103D9000800180018001800100000000000000001F
:103DA0000000000000000000000000000000000013
:103DB0000000000000000000000000000000000003
:103DC000000000000000800180010001000180006F
:103DD00000000000000000000000000000000000E3
:103DE000000000000000000000000000E007E00705
:103DF00000000000000000000000000000000000C3
:103E000000000000000000000000000000000000B2
:103E100000000000000000000000000000000000A2
:103E2000000000000000C000C00000000000000012
:103E3000000000000000000C000C00060006000658
:103E40000003000300038003800180018001C000A3
:103E5000C000C00060006000000000000000000022
:103E6000000000000000E003F007380E180C0C18EA
:103E70000C180C180C180C180C180C180C180C1822
:103E8000180C380EF007E0030000000000000000EE
:103E900000000000000000018001C001F001980155
:103EA0008801800180018001800180018001800102
:103EB00080018001800180010000000000000000FE
:103EC000000000000000E003F80F180C0C180C189C
:103ED00000180018000C000600038001C0006000FC
:103EE00030001800FC1FFC1F000000000000000054
:103EF000000000000000E001F807180E0C0C0C0C8C
:103F0000000C0006C003C007000C001800180C18B5
:103F10000C18180CF807E003000000000000000077
:103F2000000000000000000C000E000F000F800DCC
:103F3000C00C600C600C300C180C0C0CFC3FFC3FEF
:103F4000000C000C000C000C000000000000000041
:103F5000000000000000F80FF80F180018000C0017
:103F6000EC03FC071C0E001C0018001800180C18AD
:103F70001C0C180EF807E003000000000000000011
:103F8000000000000000C007F00F381C18181800CF
:103F90000C00CC03EC0F3C0E1C1C0C180C180C185D
:103FA000181C380EF007E0030000000000000000BD
:103FB000000000000000FC1FFC1F000C00060006B3
:103FC000000380038001C001C000E00060006000C9
:103FD00070003000300030000000000000000000E1
:103FE000000000000000E003F007380E180C180C69
:103FF000180C3806F007F007180C0C180C180C18E1
:104000000C18380CF80FE00300000000000000005E
:10401000000000000000E003F007380E1C0C0C1834
:104020000C180C181C1C381EF81BE0190018000C8A
:10403000000C1C0EF807F00100000000000000005A
:104040000000000000000000000000000000000070
:10405000800180010000000000000000000000005E
:10406000000000008001800100000000000000004E
:104070000000000000000000000000000000000040
:10408000800180010000000000000000000000002E
:10409000000000008001800100010001800000009C
:1040A0000000000000000000000000000000000010
:1040B000000000000010001C800FE003F800180052
:1040C000F800E003800F001C00100000000000005A
:1040D00000000000000000000000000000000000E0
:1040E00000000000F81F000000000000F81F0000A2
:1040F00000000000000000000000000000000000C0
:1041000000000000000000000000000000000000AF
:104110000000000008003800F001C007001F001870
:10412000001FC007F0013800080000000000000078
:10413000000000000000E003F80F180C0C180C1829
:104140000018000C000600038001C000C000C00081
:1041500000000000C000C0000000000000000000DF
:104160000000000000000000E00718180420C22929
:10417000224A114409440944094409221113E20C5A
:10418000024004201818E0070000000000000000B2
:1041900000000000000080038003C006C006C006C7
:1041A000600C600C301830183018F83FF83F1C7065
:1041B0000C600C6006C006C000000000000000009B
:1041C000000000000000FC03FC0F0C0C0C180C1885
:1041D0000C180C0CFC07FC0F0C180C300C300C30BD
:1041E0000C300C18FC1FFC07000000000000000051
:1041F000000000000000C007F01F38381C300C70B1
:1042000006600600060006000600060006000660BE
:104210000C701C30F01FE0070000000000000000E0
:10422000000000000000FE03FE0F060E0618061830
:1042300006300630063006300630063006300618E6
:104240000618060EFE0FFE0300000000000000002E
:10425000000000000000FC3FFC3F0C000C000C00C4
:104260000C000C00FC1FFC1F0C000C000C000C00D0
:104270000C000C00FC3FFC3F0000000000000000B0
:10428000000000000000F83FF83F18001800180078
:1042900018001800F81FF81F180018001800180060
:1042A00018001800180018000000000000000000AE
:1042B000000000000000E00FF83F3C780E6006E0D0
:1042C00007C00300030003FE03FE03C007C006C0CF
:1042D0000EC03CF0F83FE00F0000000000000000BE
:1042E0000000000000000C300C300C300C300C30A2
:1042F0000C300C30FC3FFC3F0C300C300C300C30E0
:104300000C300C300C300C300000000000000000BD
:104310000000000000008001800180018001800118
:104320008001800180018001800180018001800185
:104330008001800180018001000000000000000079
:10434000000000000000000600060006000600064F
:104350000006000600060006000600060006180615
:1043600018063807F003E00100000000000000001C
:1043700000000000000006300618060C06060603C2
:104380008601C60066007600DE008E010603060682
:10439000060C061806300660000000000000000051
:1043A0000000000000001800180018001800180095
:1043B000180018001800180018001800180018003D
:1043C00018001800F81FF81F00000000000000008F
:1043D0000000000000000EE01EF01EF01EF036D8B7
:1043E00036D836D836D866CC66CC66CCC6C6C6C6F5
:1043F000C6C6C6C686C386C3000000000000000013
:104400000000000000000C301C303C303C306C30B0
:104410006C30CC30CC308C310C330C330C360C3649
:104420000C3C0C3C0C380C3000000000000000007C
:10443000000000000000E007F81F1C380E70066046
:1044400003C003C003C003C003C003C003C00660B1
:104450000E701C38F81FE00700000000000000008C
:10446000000000000000FC0FFC1F0C380C300C306A
:104470000C300C300C18FC1FFC070C000C000C005E
:104480000C000C000C000C000000000000000000FC
:10449000000000000000E007F81F1C380E700660E6
:1044A00003E003C003C003C003C003C007E006630A
:1044B0000E3F1C3CF83FE0F700C000000000000089
:1044C000000000000000FE0FFE1F06380630063018
:1044D00006300638FE1FFE0706030606060C061801
:1044E00006180630063006600000000000000000DC
:1044F000000000000000E003F80F1C0C0C180C1862
:104500000C001C00F803E00F001E003806300630D7
:104510000E301C1CF80FE007000000000000000037
:10452000000000000000FE7FFE7F8001800180010E
:104530008001800180018001800180018001800173
:104540008001800180018001000000000000000067
:104550000000000000000C300C300C300C300C302F
:104560000C300C300C300C300C300C300C300C306B
:104570000C301818F81FE0070000000000000000D1
:1045800000000000000003600630063006300C1802
:104590000C180C18180C180C380E30063006700762
:1045A00060036003C001C0010000000000000000C3
:1045B0000000000000000360C361C361C361663393
:1045C000663366336633663366336C1B6C1B6C1B59
:1045D0002C1A3C1E380E380E0000000000000000AF
:1045E0000000000000000FE00C7018303018700C54
:1045F000600EC00780038003C003E006700C301C0F
:1046000018180C300E6007E00000000000000000E9
:1046100000000000000003C006600C301C38381891
:10462000300C6006E007C00380018001800180013A
:104630008001800180018001000000000000000076
:10464000000000000000FC7FFC7F006000300018CC
:10465000000C000600038001C0006000300018005C
:104660000C000600FE7FFE7F00000000000000003E
:10467000000000000000E003E00360006000600054
:10468000600060006000600060006000600060002A
:104690006000600060006000600060006000E00397
:1046A000E0030000000030003000600060006000A7
:1046B000C000C000C000C001800180018001000373
:1046C00000030003000600060000000000000000D8
:1046D000000000000000E003E0030003000300030B
:1046E00000030003000300030003000300030003B2
:1046F0000003000300030003000300030003E003C2
:10470000E003000000000000C001C001600360037E
:10471000600330063006180C180C00000000000082
:104720000000000000000000000000000000000089
:104730000000000000000000000000000000000079
:104740000000000000000000000000000000000069
:10475000000000000000FFFFFFFF0000000000005D
:104760000000000000000C000C000C000C000C000D
:104770000C0000000000000000000000000000002D
:104780000000000000000000000000000000000029
:104790000000000000000000000000000000000019
:1047A000F003F8071C0C0C0C000FF00FF80C0C0CAD
:1047B0000C0C1C0FF80FF0180000000000000000A7
:1047C0000000000000001800180018001800180071
:1047D000D803F80F380C18181818181818181818C3
:1047E0001818380CF80FD803000000000000000073
:1047F00000000000000000000000000000000000B9
:10480000C003F007300E180C18001800180018002C
:10481000180C300EF007C00300000000000000007C
:104820000000000000000018001800180018001810
:10483000C01BF01F301C1818181818181818181852
:104840001818301CF01FC01B000000000000000002
:104850000000000000000000000000000000000058
:10486000C003F00F300C1818F81FF81F18001800BC
:104870003818301CF00FC0070000000000000000D6
:10488000000000000000800FC00FC000C000C0008A
:10489000F007F007C000C000C000C000C000C000AA
:1048A000C000C000C000C000000000000000000008
:1048B00000000000000000000000000000000000F8
:1048C000E00DF80F180E0C0C0C0C0C0C0C0C0C0C56
:1048D0000C0C180EF80FE00D000C0C0C1C06F80761
:1048E000F00100000000180018001800180018005F
:1048F000D807F80F381C181818181818181818188E
:1049000018181818181818180000000000000000E7
:10491000000000000000C000C00000000000000017
:10492000C000C000C000C000C000C000C000C00087
:10493000C000C000C000C000000000000000000077
:10494000000000000000C000C000000000000000E7
:10495000C000C000C000C000C000C000C000C00057
:10496000C000C000C000C000C000C000C000F8000F
:104970007800000000000C000C000C000C000C0083
:104980000C0C0C060C038C01CC006C00FC009C0190
:104990008C030C030C060C0C00000000000000004F
:1049A000000000000000C000C000C000C000C00047
:1049B000C000C000C000C000C000C000C000C000F7
:1049C000C000C000C000C0000000000000000000E7
:1049D00000000000000000000000000000000000D7
:1049E0007C3CFF7EC7E383C183C183C183C183C194
:1049F00083C183C183C183C10000000000000000A7
:104A000000000000000000000000000000000000A6
:104A10009807F80F381C18181818181818181818AC
:104A200018181818181818180000000000000000C6
:104A30000000000000000000000000000000000076
:104A4000C003F00F300C1818181818181818181878
:104A50001818300CF00FC003000000000000000028
:104A60000000000000000000000000000000000046
:104A7000D803F80F380C1818181818181818181820
:104A80001818380CF80FD803180018001800180070
:104A900018000000000000000000000000000000FE
:104AA000C01BF01F301C18181818181818181818E0
:104AB0001818301CF01FC01B001800180018001830
:104AC00000180000000000000000000000000000CE
:104AD000B007F003700030003000300030003000CC
:104AE0003000300030003000000000000000000006
:104AF00000000000000000000000000000000000B6
:104B0000E003F003380E180C3800F003C007000C67
:104B1000180C380EF007E003000000000000000051
:104B200000000000000000008000C000C000C000C5
:104B3000F007F007C000C000C000C000C000C00007
:104B4000C000C000C0078007000000000000000097
:104B50000000000000000000000000000000000055
:104B600018181818181818181818181818181818C5
:104B70001818381CF01FE0190000000000000000A9
:104B80000000000000000000000000000000000025
:104B90000C18180C180C180C300630063006600380
:104BA00060036003C001C0010000000000000000BD
:104BB00000000000000000000000000000000000F5
:104BC000C141C141C3616363636363633636363693
:104BD00036361C1C1C1C1C1C0000000000000000C1
:104BE00000000000000000000000000000000000C5
:104BF0001C38381C300C60066003600360036003DF
:104C00006006300C381C1C3800000000000000005A
:104C10000000000000000000000000000000000094
:104C20001830301830187018600C600CE00CC0069A
:104C3000C00680038003800380018001C001F00072
:104C400070000000000000000000000000000000F4
:104C5000FC1FFC1F000C000600038001C000600068
:104C600030001800FC1FFC1F0000000000000000C6
:104C700000000000000000038001C000C000C00070
:104C8000C000C000C0006000600030006000400054
:104C9000C000C000C000C000C000C0008001000310
:104CA000000000000000800180018001800180017F
:104CB00080018001800180018001800180018001EC
:104CC00080018001800180018001800180018001DC
:104CD0008001000000006000C000C0018001800170
:104CE0008001800180010003000300060003000131
:104CF000800180018001800180018001C00060008E
:104D000000000000000000000000000000000000A3
:104D100000000000F010F81F080F00000000000065
:104D20000000000000000000000000000000000083
:104D3000000000000000010002000100030001006B
:104D40000200010004000100020001000300010054
:104D50000200010005000100020001000300010043
:104D60000200010004000100020001000300010034
:104D70000200010006000100020001000300010022
:104D80000200010004000100020001000300010014
:104D90000200010005000100020001000300010003
:104DA00002000100040001000200010003000100F4
:104DB00002000100070001000200010003000100E1
:104DC00002000100040001000200010003000100D4
:104DD00002000100050001000200010003000100C3
:104DE00002000100040001000200010003000100B4
:104DF00002000100060001000200010003000100A2
:104E00000200010004000100020001000300010093
:104E10000200010005000100020001000300010082
:104E20000200010004000100020001000300010073
:104E3000020001003031323334353637383961629F
:104E40006364656600303132333435363738394182
:104E50004243444546000000093B0008013B00086E
:104E6000FD3A0008053B0008884E000800000020BD
:104E7000D4000000F42000085C4F0008D40000209B
:104E80005C160000042100080095BA0A000000002A
:104E900000000000010203040607080900000000EA
:104EA00001020304010203040607080900000000D0
:104EB00000000000643B0008100018000000FFFF25
:104EC000000000D000000000000000000000000012
:104ED00000000000000000000000000000000000D2
:104EE00000000000000000000000000000000000C2
:104EF0006800002068000020780000000100000029
:104F0000780000207800002020000000040000004D
:104F10008800002088000020300000000900000008
:104F200098000020980000202C00000000000000E5
:104F30000000000000000000000000000000000071
:104F40000000000000000000000000000000000061
:0C4F500000000000000000000000000055
:04000005080001AD41
:00000001FF
